:10000000008000208D0700008507000085070000A4
:1000100080B51448144B21E05C689968DD688C4217
:100020000CD0002205E0A6180832D6E9008941E983
:1000300002898C460831AA42F5D101E004EB050C97
:100040001C696146002204E008320026002741E9CD
:1000500002670831A242F7D1143301380028DBD1FE
:1000600003F0E0F9010000006C35000048F22013B5
:10007000C1F6FF731A780AB901201870704700BFE3
:1000800048F20810C1F6FF7008B503682BB140F2C2
:100090000003C0F2000303B1984708BD80B500AF6C
:1000A00000F0E0FB4FF0000000F0FAFB00F056FE1D
:1000B00000F018FC00F04AFD01F06EF94FF000006E
:1000C00001F0D6F901F04AFB48F24010C1F6FF708A
:1000D0004FF000014FF0080203F03AF94FF0010031
:1000E00001F0CAFB4FF0000001F0C6FB01F0B6FBC7
:1000F0004FF0000000F03EFD00F062FD0346DBB271
:10010000DAB248F23C13C1F6FF731A7048F23C139E
:10011000C1F6FF731B78962B15D900F033F800F069
:10012000C3F80346184600F0B7FA48F24010C1F68B
:10013000FF704FF000014FF0080203F009F94FF48F
:10014000FA6001F011FA48F22113C1F6FF731B782F
:1001500003F101024FEAE2734FEA93731A4402F08B
:100160000302C3EB0203DAB248F22113C1F6FF73B4
:100170001A7048F22113C1F6FF731B78184600F07D
:100180008FFBABE790B583B000AF48F22113C1F607
:10019000FF731B781C4601F023FB03461A4648F206
:1001A0004013C1F6FF7323F8142048F22113C1F65F
:1001B000FF731B7803F101024FEAE2734FEA937376
:1001C0001A4402F00302C3EB0203DAB248F221132D
:1001D000C1F6FF731A7048F22113C1F6FF731B7842
:1001E000184600F05DFB4FF00103FB7154E04FF047
:1001F000000000F0BFFC00F0E3FC0346DBB2DAB223
:1002000048F23C13C1F6FF731A7048F23C13C1F672
:10021000FF731B78912B21D948F22113C1F6FF738C
:100220001B781A4648F24013C1F6FF7333F81230B8
:10023000002B13D148F22113C1F6FF731B781C4623
:1002400001F0CEFA03461A4648F24013C1F6FF7396
:1002500023F81420FB7903F10103FB7148F2211309
:10026000C1F6FF731B7803F101024FEAE2734FEA14
:1002700093731A4402F00302C3EB0203DAB248F2AA
:100280002113C1F6FF731A7048F22113C1F6FF73F0
:100290001B78184600F004FBFB79032BA7D907F164
:1002A0000C07BD4690BD00BF80B584B000AF4FF0D5
:1002B0000003FB7014E0FA7848F24013C1F6FF73B4
:1002C00033F8122040F2F3139A4205D848F2211372
:1002D000C1F6FF73FA781A70FB7803F10103FB7023
:1002E000FB78032BE7D9E64B7B60E54BBB60E44B27
:1002F000FB6048F22113C1F6FF731B78032B00F259
:10030000AF8101A252F823F0190300008905000013
:10031000E5030000B704000048F24013C1F6FF7384
:100320005B881A4648F24013C1F6FF739B8813445A
:100330004FEAD37213444FEA6303184602F07CFD80
:100340000346BB6048F24013C1F6FF735B881A4650
:1003500048F24013C1F6FF739B88C3EB02031846B3
:1003600002F06AFD034623F00043FB60F868B968B9
:1003700002F06AFE0346184602F066F902460B4692
:100380001046194601F054FE02460B461046194627
:10039000B7A3D3E9002302F0ABF902460B4610469F
:1003A0001946B5A3D3E9002302F0CCFA02460B4666
:1003B0001046194602F036FC03467B6048F24013B3
:1003C000C1F6FF735A8848F24013C1F6FF739B8849
:1003D0009A4280F04481AB48796802F077FC03468A
:1003E0007B603DE148F24013C1F6FF731B881A465B
:1003F00048F24013C1F6FF73DB8813444FEAD3720F
:1004000013444FEA6303184602F016FD0346BB602F
:1004100048F24013C1F6FF731B881A4648F2401396
:10042000C1F6FF73DB88C3EB0203184602F004FD3C
:10043000034623F00043FB60F868B96802F004FE4D
:100440000346184602F000F902460B4610461946CC
:1004500001F0EEFD02460B461046194684A3D3E98F
:10046000002302F045F902460B461046194682A3C6
:10047000D3E9002302F066FA02460B4610461946FD
:1004800002F0D0FB03467B6048F24013C1F6FF73D5
:100490001A8848F24013C1F6FF73DB889A4203D2F0
:1004A0007B6883F000437B607868774902F010FC3A
:1004B00003467B60D4E048F24013C1F6FF735B88CB
:1004C0001A4648F24013C1F6FF739B8813444FEA63
:1004D000D37213444FEA6303184602F0ADFC03469F
:1004E000BB6048F24013C1F6FF735B881A4648F2BE
:1004F0004013C1F6FF739B88C3EB0203184602F05A
:100500009BFC034623F00043FB60F868B96802F0E7
:100510009BFD0346184602F097F802460B4610462C
:10052000194601F085FD02460B461046194650A3B8
:10053000D3E9002302F0DCF802460B4610461946C8
:100540004DA3D3E9002302F0FDF902460B46104605
:10055000194602F067FB03467B6048F24013C1F680
:10056000FF739A8848F24013C1F6FF735B889A4282
:1005700003D27B6883F000437B607868434902F0D4
:10058000A7FB03467B606BE048F24013C1F6FF73A4
:100590001B881A4648F24013C1F6FF73DB881344E8
:1005A0004FEAD37213444FEA6303184602F044FC47
:1005B0000346BB6048F24013C1F6FF731B881A461E
:1005C00048F24013C1F6FF73DB88C3EB0203184601
:1005D00002F032FC034623F00043FB60F868B96880
:1005E00002F032FD0346184602F02EF802460B4692
:1005F0001046194601F01CFD02460B4610461946EE
:100600001BA3D3E9002302F073F802460B46104601
:10061000194619A3D3E9002302F094F902460B46C8
:100620001046194602F0FEFA03467B6048F240137A
:10063000C1F6FF73DA8848F24013C1F6FF731B88D6
:100640009A4205D21248796802F040FB03467B606B
:100650007868104902F03CFB03467B6000E000BF75
:100660007B68184607F11007BD4680BDAFF30080D8
:100670000000000000806640EA2E4454FB2109403F
:10068000000000000080B3430000B4420000344387
:10069000000020410000874380B582B000AF786041
:1006A0007868364902F01CFC03461846344902F0CB
:1006B000CBFC0346184602F063FD0346DBB2184646
:1006C00000F0D6FE4FF0010000F0D4FB4FF0000028
:1006D0004FF00C0100F058FB48F22113C1F6FF73F4
:1006E0001B78184600F07CFD4FF000004FF0000131
:1006F00000F04AFB48F24013C1F6FF731B8818460E
:1007000000F06EFD4FF000004FF0060100F03CFBE2
:1007100048F24013C1F6FF735B88184600F060FD95
:100720004FF001004FF0000100F02EFB48F24013A3
:10073000C1F6FF739B88184600F052FD4FF0010090
:100740004FF0060100F020FB48F24013C1F6FF73A2
:10075000DB88184600F044FD4FF001004FF00C011B
:1007600000F012FB786802F00BFD03469BB21846BE
:1007700000F036FD07F10807BD4680BD0000434389
:100780000080B34380B400AFFEE700BF054B1C7888
:1007900044F001041C70044B1A78D2B2034B1A7057
:1007A000FFF736FCE8460040F8460040BC760040C3
:1007B00080B582B000AF4EF60C53CEF2000340F28B
:1007C0000042C0F2FA521A604EF61453CEF2000301
:1007D0004EF61452CEF20002126842F400721A6011
:1007E0004FF000037B6019E079687B68032B07D822
:1007F0007A6840F20003C0F2000353F8223003E0AD
:1008000040F28573C0F2000348F20002C1F6FF72A5
:1008100042F821307B6803F101037B607B682F2B5A
:10082000E2D947F2BC63C4F200031B78DAB248F2A3
:100830004E13C1F6FF731A704EF60853CEF2000342
:1008400048F20002C1F6FF721A6001F0B7FA48F2EE
:100850000013C1F6FF734FF000021A6007F108079A
:10086000BD4680BD80B582B000AF4FF00003FB7184
:1008700007E0FB79184601F01DFAFB7903F101034B
:10088000FB71FB79032BF4D948F20C13C1F6FF730B
:100890004FF0FF321A7007F10807BD4680BD00BF58
:1008A00080B582B000AF0346FB7148F20C13C1F66D
:1008B000FF731B78FF2B07D048F20C13C1F6FF73B0
:1008C0001B78184601F0F6F9FB79184601F076F925
:1008D00048F20C13C1F6FF73FA791A7007F1080792
:1008E000BD4680BD80B500AF48F22213C1F6FF734C
:1008F0001B78002B08D100F00BF848F22213C1F648
:10090000FF734FF001021A7000F030F880BD00BF95
:1009100080B500AF4FF0100000F0EAFD4FF000008E
:100920004FF0070100F088FE4FF0000040F6A541AF
:10093000C0F2000100F050FE45F60913C4F20003B6
:1009400045F60912C4F200021278D2B242F0060251
:10095000D2B21A704FF0080000F0C4F848F24C13FD
:10096000C1F6FF734FF000021A8080BD80B582B0DF
:1009700000AF00F0E5FD0346FB7144F2AB33C4F277
:10098000000344F2AB32C4F200021278D2B242F059
:100990000202D2B21A7044F2BB33C4F2000344F232
:1009A000BB32C4F200021278D2B242F00202D2B2DA
:1009B0001A7044F2A133C4F2000344F2A132C4F22B
:1009C00000021278D2B242F00102D2B21A7044F29E
:1009D000B133C4F2000344F2B132C4F2000212781F
:1009E000D2B242F00102D2B21A7045F60B13C4F231
:1009F00000031B78BB71BB7923F00C03BB71BB797F
:100A000043F00203BB71BB7943F00103BB7145F6B0
:100A10000B13C4F20003BA791A7045F60E13C4F230
:100A200000034FF004021A7045F60D13C4F20003E0
:100A300045F60D12C4F200021278D2B202F0BF02E3
:100A40001A7045F60D13C4F2000345F60D12C4F2F8
:100A500000021278D2B242F02002D2B21A7045F6E9
:100A60000813C4F200034FF008021A7045F62F3342
:100A7000C4F2000345F62F32C4F200021278D2B25B
:100A800042F00802D2B21A7045F60813C4F200030D
:100A900045F60812C4F200021278D2B242F02002E7
:100AA000D2B21A704FF0020000F082FD45F6081332
:100AB000C4F2000345F60812C4F200021278D2B262
:100AC00002F0DF021A704EF28023CEF200034FF0E4
:100AD00001021A60FB79184600F036FD07F108079D
:100AE000BD4680BD80B584B000AF0346FB7148F2BF
:100AF0002313C1F6FF73FA791A70FB790A2B08D019
:100B00000C2B02D0082B08D00BE06FF03A03FB73DC
:100B10000EE06FF03A03FB730AE06FF03A03FB73E9
:100B200006E06FF03A03FB734FF0000000F010FD99
:100B300045F60A13C4F20003FA7B1A70FB791846D3
:100B400000F06CF807F11007BD4680BD80B400AF1F
:100B500045F60813C4F2000345F60812C4F2000279
:100B60001278D2B242F00102D2B21A70BD4680BCF5
:100B7000704700BF80B584B000AF0346FB7145F6F7
:100B80000913C4F200031B78DBB203F00103FB730B
:100B9000FB7B012B02D0FB79002BF0D0FB7B012BE0
:100BA00008D14FF0010000F003FD45F60913C4F22F
:100BB00000031B78FB7B184607F11007BD4680BD7C
:100BC00080B483B000AF45F6A233C4F200031B88A3
:100BD000FB8048F22313C1F6FF731B78082B06D065
:100BE0000A2B08D1FB884FEA9303FB8003E0FB88C4
:100BF0004FEA1313FB80FB88DAB248F24A13C1F6BE
:100C0000FF731B889BB2DBB2C3EB0203DBB25BB2A8
:100C1000184607F10C07BD4680BC704780B584B00C
:100C200000AF0346FB71FB790A2B08D00C2B02D0D6
:100C3000082B08D00BE040F6FF73FB600EE040F29B
:100C4000FF33FB600AE04FF0FF03FB6006E04FF06C
:100C50000003FB604FF0000000F07AFCFB684FF4EB
:100C60007A7202FB03F3FB60FA6848F6AD33C6F60E
:100C7000DB0383FB02134FEAE3214FEAE273C3EB8A
:100C800001039AB248F24813C1F6FF731A8048F282
:100C90004A13C1F6FF734FF000021A8007F11007E4
:100CA000BD4680BD80B400AFBD4680BC704700BF6C
:100CB00080B500AF4FF0280000F056FC4FF0030065
:100CC00000F048FA4FF0050000F04EFC4FF0030032
:100CD00000F040FA4FF00F0000F046FC4FF0030028
:100CE00000F038FA4FF0010000F03EFC4FF0020037
:100CF00000F030FA4FF0050000F036FC4FF006002F
:100D000000F0B8F84FF00E0000F0B4F84FF02C00EF
:100D100000F0B0F84FF0080000F0ACF84FF0010020
:100D200000F0A8F84FF00C0000F0A4F84FF003001A
:100D300000F0A0F84FF0050000F016FC80BD00BFE9
:100D400080B500AF4FF00C0000F094F848F2241387
:100D5000C1F6FF734FF001021A7080BD80B500AF7D
:100D600048F22513C1F6FF731B78002B08D1FFF75B
:100D70009FFF48F22513C1F6FF734FF001021A706E
:100D8000FFF7DEFF80BD00BF80B582B000AF024636
:100D90000B46FA71BB71FB79032B2AD801A252F8DA
:100DA00023F000BFB50D0000C50D0000D50D0000FB
:100DB000E50D0000BB79A3F18003DBB2184600F01B
:100DC00059F816E0BB79A3F14003DBB2184600F0F6
:100DD00051F80EE0BB79A3F16C03DBB2184600F0CA
:100DE00049F806E0BB79A3F12C03DBB2184600F00A
:100DF00041F807F10807BD4680BD00BF80B584B04B
:100E000000AF78604FF00103BB737B681B78FB7306
:100E10000CE0FB7B184600F011F8BA7B7B681344AA
:100E20001B78FB73BB7B03F10103BB73FB7B002BC4
:100E3000EFD107F11007BD4680BD00BF80B584B07B
:100E400000AF0346FB7100F031F8FB794FEA131352
:100E5000FB73FB7B184600F027F9FB7903F00F03C7
:100E6000FB73FB7B184600F01FF907F11007BD4626
:100E700080BD00BF80B584B000AF0346FB7100F0B9
:100E800015F8FB794FEA1313FB73FB7B184600F050
:100E900061F9FB7903F00F03FB73FB7B184600F04D
:100EA00059F907F11007BD4680BD00BF80B582B07B
:100EB00000AF45F22013C4F2000345F22012C4F241
:100EC00000021278D2B202F080021A7045F22213A8
:100ED000C4F200031B78DBB223F00F03FB7145F271
:100EE0002213C4F20003FA7942F00F02D2B21A7050
:100EF00045F22313C4F200031B78DBB223F00F0387
:100F0000FB7145F22313C4F20003FA791A7045F21B
:100F10002413C4F200031B78DBB223F00F03FB7130
:100F200045F22413C4F20003FA791A7045F2201333
:100F3000C4F2000345F22012C4F200021278D2B2C9
:100F400002F0DF021A7045F22013C4F2000345F2EA
:100F50002012C4F200021278D2B242F04002D2B2A1
:100F60001A704FF0000000F023FB45F22013C4F28A
:100F7000000345F22012C4F200021278D2B242F00D
:100F80001002D2B21A704FF0010000F011FB45F2CE
:100F90002113C4F200031B78FB7145F22013C4F245
:100FA000000345F22012C4F200021278D2B202F01D
:100FB000EF021A704FF0000000F0FAFAFB7903F02C
:100FC0000803FB7145F22013C4F2000345F220121E
:100FD000C4F200021278D2B242F01002D2B21A70F9
:100FE0004FF0010000F0E4FA45F22013C4F20003D0
:100FF00045F22012C4F200021278D2B202F0EF02DF
:101000001A70FB79002BACD145F22013C4F2000317
:1010100045F22012C4F200021278D2B202F0BF02EE
:101020001A7045F22013C4F2000345F22012C4F2F4
:1010300000021278D2B202F080021A7045F2221336
:10104000C4F2000345F22212C4F200021278D2B2B6
:1010500002F0F0021A7045F22313C4F200031B7869
:10106000DBB223F00F03FB7145F22313C4F200033C
:10107000FA7942F00F02D2B21A7045F22413C4F288
:1010800000031B78DBB223F00F03FB7145F224133E
:10109000C4F20003FA7942F00F02D2B21A7007F1DB
:1010A0000807BD4680BD00BF80B582B000AF0346D3
:1010B000FB71FFF7FBFE45F22013C4F2000345F27B
:1010C0002012C4F200021278D2B242F02002D2B250
:1010D0001A7045F22013C4F2000345F22012C4F244
:1010E00000021278D2B202F0BF021A7045F2201349
:1010F000C4F2000345F22012C4F200021278D2B208
:1011000002F0F0021A7045F22013C4F2000345F217
:101110002012C4F200021278D1B2FA7941EA020236
:10112000D2B242F01002D2B21A704FF0010000F0B9
:101130003FFA45F22013C4F2000345F22012C4F234
:1011400000021278D2B202F0EF021A7007F108071B
:10115000BD4680BD80B582B000AF0346FB7145F24D
:101160002013C4F2000345F22012C4F200021278E8
:10117000D2B202F09F021A7045F22013C4F20003AB
:1011800045F22012C4F200021278D2B202F0F0024C
:101190001A7045F22013C4F2000345F22012C4F283
:1011A00000021278D1B2FA7941EA0202D2B242F0D8
:1011B0001002D2B21A704FF0010000F0F9F945F2B6
:1011C0002013C4F2000345F22012C4F20002127888
:1011D000D2B202F0EF021A7007F10807BD4680BDD7
:1011E00080B586B000AF0346FB804FF00003BB75AF
:1011F0002AE0B87DFA884CF6CD43CCF6CC43A3FB6D
:1012000002134FEAD3010B464FEA83030B444FEA24
:101210004303C3EB02039BB2DBB203F13003DAB248
:1012200007F1180101EB000303F8102CFA884CF6C3
:10123000CD43CCF6CC43A3FB02134FEAD303FB8090
:10124000BB7D03F10103BB75FB88092BD1D8B87DA9
:10125000FA884CF6CD43CCF6CC43A3FB02134FEAFD
:10126000D3010B464FEA83030B444FEA4303C3EB1E
:1012700002039BB2DBB203F13003DAB207F11801CB
:1012800001EB000303F8102CBB7DFB7512E0FA7D27
:10129000BB7DC3EB0203BA7D07F118010A4412F8C3
:1012A000102C07F118010B4403F8082CBB7D03F147
:1012B000FF33BB75BB7D002BE9D1FB7D3A7A07F18B
:1012C00018010B4403F8082CFB7D03F1010307F11F
:1012D000180213444FF0000203F8082C07F1100322
:1012E0001846FFF78BFD07F11807BD4680BD00BF0C
:1012F00080B500AF45F62803C4F200034FF00002AA
:101300001A7045F62903C4F200034FF000021A7068
:101310004FF0040000F082F84FF0020000F056F8A1
:1013200080BD00BF80B400AF44F2A833C4F2000314
:1013300044F2A832C4F200021278D2B242F004029F
:10134000D2B21A7044F2B833C4F2000344F2B83295
:10135000C4F200021278D2B242F00402D2B21A7081
:1013600048F22913C1F6FF731B78012B10D145F603
:101370002803C4F2000348F22C12C1F6FF7252781F
:101380001A7048F22913C1F6FF734FF000021A7069
:10139000BD4680BC704700BF80B500AF48F228133F
:1013A000C1F6FF731B78002B08D1FFF7A1FF48F2AD
:1013B0002813C1F6FF734FF001021A70FFF7B2FF56
:1013C0004FF0000000F054F880BD00BF80B483B03F
:1013D00000AF0346FB7145F62803C4F2000345F64F
:1013E0002802C4F200021278D2B202F0FD021A7092
:1013F00045F62803C4F2000345F62802C4F20002B1
:101400001278D1B2FA7902F0020241EA0202D2B2B3
:101410001A7007F10C07BD4680BC704780B582B0DA
:1014200000AF0346FB7145F62803C4F2000345F6FE
:101430002802C4F200021278D2B202F0F3021A704B
:1014400045F62803C4F2000345F62802C4F2000260
:101450001278D1B2FA7902F00C0241EA0202D2B259
:101460001A7000F023F807F10807BD4680BD00BFE1
:1014700080B584B000AF0346FB7100F061F803460D
:10148000FB7345F68233C4F20003FA791A7045F60D
:101490008233C4F20003FA791A70FB7B184600F01D
:1014A00053F807F11007BD4680BD00BF80B483B07C
:1014B00000AF45F62803C4F200031B78DBB203F04B
:1014C0000C034FEA9303DBB203F10603FB7144F212
:1014D0000A63C4F20003FA7902F1924202F59272B1
:1014E0001278D2B21A7007F10C07BD4680BC704763
:1014F00080B483B000AF0346FB7144F20213C4F220
:10150000000344F20212C4F200021278D2B2114671
:10151000FA79D2B202F0F80241EA0202D2B2D2B2B1
:101520001A7007F10C07BD4680BC70470000000030
:101530000230800803D000BF01380046FCD170475C
:10154000EFF3108072B6704780F31088704700BFC9
:1015500080B483B000AF0346FB7101BE07F10C07F6
:10156000BD4680BC704700BF80B582B000AF7860D8
:101570000BE048F21C13C1F6FF731B681846FFF717
:10158000D7FF7B68A3F500437B607B68B3F5004F12
:10159000EFD848F21413C1F6FF731B687A6802FB98
:1015A00003F31846FFF7C4FF07F10807BD4680BDE7
:1015B00080B582B000AF0346FB80FA8848F218136A
:1015C000C1F6FF731B7803FB02F31846FFF7B0FF69
:1015D00007F10807BD4680BD80B584B000AF034663
:1015E0003960FB714EF60853CEF200031B68FB60B6
:1015F000FB791F2B03D94FF00000FFF7A9FFFB7900
:1016000003F01F0303F110034FEA8302FB68134446
:101610001B68BB60FB7903F01F0303F110034FEA63
:101620008302FB6813443A681A60BB68184607F1E6
:101630001007BD4680BD00BF80B582B000AF024636
:101640000B46FA71BB71BB79072B03D94FF0000031
:10165000FFF77EFFFB791F2B03D94FF00000FFF748
:1016600077FFFB7903F01F0303F1604303F5644345
:10167000BA794FEA4212D2B21A7007F10807BD4692
:1016800080BD00BF80B582B000AF46F27A43C4F29D
:1016900000031B78DBB223F00703BB7146F27A43E9
:1016A000C4F20003BA7942F00102D2B21A7046F2D3
:1016B0007A43C4F200031B78DBB223F00303BB714F
:1016C00046F27A43C4F20003BA7942F01802D2B269
:1016D0001A7000F0C3F84FF6FF7000F09FF84FF05B
:1016E000000000F06DF84FF0000000F04DF800F041
:1016F0005BF84FF0010000F0A1F8FFF721FF03466F
:10170000FB7146F29B43C4F2000346F29B42C4F2D3
:1017100000021278D2B242F01002D2B21A70FB79F3
:101720001846FFF711FF07F10807BD4680BD00BF4F
:1017300080B400AF46F27A43C4F2000346F27A4224
:10174000C4F200021278D2B26FEA42626FEA5262C9
:10175000D2B21A70BD4680BC704700BF80B500AFE2
:1017600048F23013C1F6FF731B78002B08D1FFF746
:1017700089FF48F23013C1F6FF734FF001021A706F
:10178000FFF7D6FF80BD00BF80B483B000AF034633
:10179000FB7146F28B43C4F20003FA791A7007F129
:1017A0000C07BD4680BC704780B400AF46F26B4367
:1017B000C4F200031B78DBB21846BD4680BC7047FC
:1017C00080B483B000AF0346FB8046F61403C4F236
:1017D0000003FA881A8007F10C07BD4680BC7047E9
:1017E00080B400AF46F20A43C4F200031B7846F609
:1017F0009403C4F200031B889BB21846BD4680BC0C
:10180000704700BF80B400AF46F69403C4F20003F3
:101810001B889BB21846BD4680BC704780B483B01D
:1018200000AF0346FB8046F65403C4F20003FA8877
:101830001A8007F10C07BD4680BC704780B483B0A6
:1018400000AF0346FB8046F67403C4F20003FA8837
:101850001A8007F10C07BD4680BC704780B500AF09
:1018600001E0FFF7CFFFFFF79FFF034603F04003C0
:10187000002BF6D180BD00BF80B483B000AF03461B
:10188000FB7146F27B43C4F20003FA791A7007F148
:101890000C07BD4680BC704780B485B000AF78604F
:1018A00039607B68BB604FF00003FB6009E0BA68F9
:1018B000FB6813444FF000021A70FB6803F1010348
:1018C000FB60FA683B689A42F1D307F11407BD4602
:1018D00080BC704780B582B000AF786039607868AE
:1018E0004FF000013A6801F033FD07F10807BD46EB
:1018F00080BD00BF80B584B000AFF860B9607A6089
:10190000F868B9687A6801F05BFC07F11007BD461A
:1019100080BD00BF80B487B000AF786039604FF001
:101920000003FB604FF00003BB602CE0BB684FEA94
:1019300083027B6813441B683B613B69FB753B6911
:1019400023F0FF033B6117E0FB684FEA43023B686B
:1019500013441B781A463B691344FA684FEA420164
:101960003A680A4452781A70FB6803F10103FB607D
:10197000FB7D03F1FF33FB75FB7D002BE4D1BB68DE
:1019800003F10103BB60BB68112BCFD907F11C0722
:10199000BD4680BC704700BF80B500AF44F28003F5
:1019A000C4F200034FF001021A8044F28203C4F231
:1019B00000034FF018021A7044F20010C4F2000045
:1019C00040F2B411C4F600014FF00402FFF792FF99
:1019D00044F20033C4F200034FF002021A7044F2E2
:1019E0000003C4F200034FF008021A7044F200230F
:1019F000C4F200034FF003021A7044F2A163C4F270
:101A0000000340F20812C4F600121278D2B21A7023
:101A100044F22223C4F200034FF008021A8044F279
:101A20002023C4F2000341F251021A8040F6B8307C
:101A3000FFF77EFD44F20403C4F200034FF00302FB
:101A40001A7044F20503C4F200034FF001021A7049
:101A500044F20403C4F200034FF000021A7044F28F
:101A60000403C4F200034FF007021A7044F20603A5
:101A7000C4F200034FF000021A7044F20803C4F2EB
:101A800000034FF048021A7044F20403C4F200034A
:101A90004FF000021A7044F20103C4F200034FF049
:101AA00002021A7044F20B03C4F200034FF0040266
:101AB0001A7044F2A233C4F2000344F2A232C4F218
:101AC00000021278D2B242F00102D2B21A7044F28D
:101AD000A133C4F2000344F2A132C4F2000212782E
:101AE000D2B242F00102D2B21A7080BD80B400AF0F
:101AF00044F2AA33C4F200034FF444721A8045F250
:101B00004D13C4F200034FF001021A7045F6200392
:101B1000C4F200034FF01E021A7045F62403C4F20B
:101B200000034FF01E021A7045F62803C4F20003AA
:101B30004FF01E021A7045F62C03C4F200034FF05A
:101B40001E021A7045F60013C4F200036FF03F0244
:101B50001A7045F60313C4F200034FF00C021A701A
:101B600045F60813C4F2000344F2C0021A8045F699
:101B70000B13C4F200034FF04C021A7045F6902389
:101B8000C4F200034FF010021A7045F62B33C4F272
:101B900000034FF020021A7045F65833C4F20003D8
:101BA0006FF05F021A7045F67603C4F200034FF03F
:101BB00044021A70BD4680BC704700BF80B485B037
:101BC00000AF0346FB71FB794FF0010202FA03F309
:101BD000FB73FB79032B67D848F23413C1F6FF730C
:101BE0001A78FB7B02EA0303DBB2002B5CD148F2DC
:101BF0003413C1F6FF731A78FB7B42EA0303DAB2AF
:101C000048F23413C1F6FF731A70FA7943F2A8430D
:101C1000C0F2000353F82220F97943F2A843C0F23E
:101C2000000353F821301978F87943F2B843C0F231
:101C300000031B5C41EA0303DBB21370FA7943F241
:101C4000C843C0F200039B5CBB73BA7B48F23813F5
:101C5000C1F6FF739B5C002B18D1BA7B43F2BC43E7
:101C6000C0F2000353F82220B97B43F2BC43C0F218
:101C7000000353F821301978B87B43F2C443C0F213
:101C800000031B5C41EA0303DBB21370BA7B48F22A
:101C90003813C1F6FF739B5C03F10103D9B248F21C
:101CA0003813C1F6FF73995407F11407BD4680BC81
:101CB000704700BF80B485B000AF0346FB71FB796D
:101CC0004FF0010202FA03F3FB73FB79032B70D888
:101CD00048F23413C1F6FF731A78FB7B02EA030360
:101CE000DBB2002B65D0FB7B6FEA0303DAB248F26C
:101CF0003413C1F6FF731B7802EA0303DAB248F229
:101D00003413C1F6FF731A70FA7943F2A843C0F294
:101D1000000353F82220F97943F2A843C0F20003EC
:101D200053F821301978F87943F2B843C0F2000330
:101D30001B5C6FEA0303DBB201EA0303DBB213703F
:101D4000FA7943F2C843C0F200039B5CBB73BA7BD1
:101D500048F23813C1F6FF739B5C03F1FF33D9B22D
:101D600048F23813C1F6FF739954BA7B48F238131E
:101D7000C1F6FF739B5C002B1BD1BA7B43F2BC43C3
:101D8000C0F2000353F82220B97B43F2BC43C0F2F7
:101D9000000353F821301978B87B43F2C443C0F2F2
:101DA00000031B5C6FEA0303DBB201EA0303DBB24F
:101DB000137007F11407BD4680BC704780B582B030
:101DC00000AF72B644F60003C4F200034FF0000205
:101DD0001A70FFF7E1FD44F60003C4F200036FF050
:101DE0007F021A7047F21003C4F200034FF00002A2
:101DF0001A7047F22003C4F200034FF000021A7079
:101E000045F67C03C4F200034FF001021A7044F25D
:101E1000E863C4F2000344F2E862C4F200021278FC
:101E2000D2B242F00102D2B21A704FF00003FB703E
:101E30002FE0FA7813464FEA430313444FEA430373
:101E40001A4643F2CC43C0F2000313447B607B6824
:101E50001A7859784FEA012141EA020299784FEA4B
:101E6000014141EA0202DB784FEA036343EA0203DD
:101E70001A467B6819795B794FEA032343EA010329
:101E80009BB210461946FFF725FDFB7803F10103CD
:101E9000FB70FB78082BCCD94FF0904040F2480102
:101EA000C4F60001FFF736FD45F20020C4F2000041
:101EB0004FF00701FFF7F0FC45F20820C4F20000E4
:101EC0004FF00701FFF7E8FC45F21020C4F20000D4
:101ED0004FF00701FFF7E0FC45F21820C4F20000C4
:101EE0004FF00701FFF7D8FC45F22020C4F20000B4
:101EF0004FF00701FFF7D0FC45F22820C4F20000A4
:101F00004FF00701FFF7C8FC45F23020C4F2000093
:101F10004FF00701FFF7C0FC45F26020C4F200005B
:101F20004FF00601FFF7B8FC45F27820C4F200003C
:101F30004FF00701FFF7B0FC45F20303C4F20103C1
:101F400045F20302C4F201021278D2B242F0020258
:101F5000D2B21A7045F21303C4F2010345F2130220
:101F6000C4F201021278D2B242F00202D2B21A7066
:101F700044F2A033C4F2000344F2A032C4F20002DF
:101F80001278D2B242F04002D2B21A7044F2C23396
:101F9000C4F2000344F2C232C4F200021278D2B298
:101FA00042F01002D2B21A7045F20210C4F20000E0
:101FB00040F29C11C4F600014FF00802FFF79AFCB2
:101FC00045F22210C4F2000040F2A411C4F6000150
:101FD0004FF00802FFF78EFC45F24210C4F20000F9
:101FE00040F2AC11C4F600014FF00802FFF782FC8A
:101FF000FFF77CFD44F2B030C4F2000044F2A0319F
:10200000C4F200014FF00C02FFF774FC44F2B0334D
:10201000C4F2000344F2B032C4F200021278D2B229
:1020200002F0FD021A7007F10807BD4680BD00BF2F
:102030002DE9F84F4FF6FF73C4F20F4321F000472C
:102040009F420C460E46054624DD40F20003C7F6CB
:10205000F0739F4200F3C68014BF002301230028C1
:102060000CBF002203F00102002A40F0BB8042F2C4
:10207000FB1442F2FB13CBF6F973C3F6F97442F684
:1020800018550029D8BF1C46C5F2444521462846AC
:10209000BDE8F88F4FF6FF73C3F6DB739F4200F382
:1020A000BD804FF6FF73C3F61F639F4240F3A680C7
:1020B0004FF0FF372A4623462846214600F018FBFA
:1020C00002460B4682468B4600F012FB92A3D3E9F0
:1020D00000238046894600F00BFB91A3D3E900233F
:1020E00000F054F942464B4600F002FB8EA3D3E9C0
:1020F000002300F04BF942464B4600F0F9FA8CA35E
:10210000D3E9002300F042F942464B4600F0F0FAD2
:1021100089A3D3E9002300F039F942464B4600F089
:10212000E7FA87A3D3E9002300F030F952465B4673
:1021300000F0DEFA84A3D3E9002382468B464046B2
:10214000494600F0D5FA82A3D3E9002300F01CF938
:1021500042464B4600F0CCFA7FA3D3E9002300F0BF
:1021600013F942464B4600F0C3FA7DA3D3E900239E
:1021700000F00AF942464B4600F0BAFA7AA3D3E9D6
:10218000002300F001F942464B4600F0B1FAB7F1E6
:10219000FF3F02460B4665D043F2085C5046C0F252
:1021A000000C59460CEBC70700F0F0F82A4623460E
:1021B00000F09EFAD7E9082300F0E6F82A46234605
:1021C00000F0E2F802460B46D7E9000100F0DCF827
:1021D000002E0C460546B8BF01F1004428462146B2
:1021E000BDE8F88F2A4628462346214600F0CEF85F
:1021F00005460C4628462146BDE8F88F5CA3D3E986
:10220000002300F0C3F840F200030022C3F6F0738D
:1022100000F0FEFC00283FF44BAFEBE700F0ACF819
:102220004FF6FF73C3F6F2739F4204460D462ADC55
:102230004FF6FF73C3F6E5739F425ADC02460B4626
:1022400000F0A4F840F200030022C3F6F07300F09F
:102250009BF8002700224FF08043804689462046A5
:1022600029462EE05046594600F090F82A4623466B
:1022700000F03EFA02460B462846214600F084F85C
:1022800005460C46B6E747F6FF73C4F203039F42C8
:1022900022DC40F200030022C3F6F873022700F0AC
:1022A00073F840F200030022C3F6F87380468946B3
:1022B0002046294600F01CFA40F200030022C3F633
:1022C000F07300F063F802460B464046494600F0C2
:1022D00039FB05460C46EDE60B4640F2000102468E
:1022E000CBF6F0710020032700F02CFB05460C46CE
:1022F000E0E640F200030022C3F6F073012700F08D
:1023000043F840F200030022C3F6F073804689468A
:1023100020462946D5E700BF11DA22E33AAD903FC7
:10232000EB0D76244B7BA93F513DD0A0660DB13F0C
:102330006E204CC5CD45B73FFF8300922449C23F74
:102340000D5555555555D53F2F6C6A2C44B4A2BF39
:102350009AFDDE522DDEAD3F6D9A74AFF2B0B33F01
:10236000711623FEC671BC3FC4EB98999999C93F79
:102370009C7500883CE4377E21F000431946704785
:1023800081F0004102E000BF83F0004330B54FEA26
:1023900041044FEA430594EA050F08BF90EA020F93
:1023A0001FBF54EA000C55EA020C7FEA645C7FEA26
:1023B000655C00F0E2804FEA5454D4EB5555B8BF49
:1023C0006D420CDD2C4480EA020281EA030382EABA
:1023D000000083EA010180EA020281EA0303362D4C
:1023E00088BF30BD11F0004F4FEA01314FF4801C1F
:1023F0004CEA113102D0404261EB410113F0004F31
:102400004FEA03334CEA133302D0524263EB4303E7
:1024100094EA050F00F0A780A4F10104D5F1200E85
:102420000DDB02FA0EFC22FA05F2801841F10001E0
:1024300003FA0EF2801843FA05F359410EE0A5F1B4
:1024400020050EF1200E012A03FA0EFC28BF4CF0E5
:10245000020C43FA05F3C01851EBE37101F000459B
:1024600007D54FF0000EDCF1000C7EEB00006EEBA8
:102470000101B1F5801F1BD3B1F5001F0CD3490832
:102480005FEA30004FEA3C0C04F101044FEA445289
:1024900012F5800F80F09A80BCF1004F08BF5FEA10
:1024A000500C50F1000041EB045141EA050130BDF0
:1024B0005FEA4C0C404141EB010111F4801FA4F193
:1024C0000104E9D191F0000F04BF01460020B1FAE8
:1024D00081F308BF2033A3F10B03B3F120020CDA20
:1024E0000C3208DD02F1140CC2F10C0201FA0CF0FE
:1024F00021FA02F10CE002F11402D8BFC2F1200C63
:1025000001FA02F120FA0CFCDCBF41EA0C01904018
:10251000E41AA2BF01EB0451294330BD6FEA040461
:102520001F3C1CDA0C340EDC04F11404C4F120024C
:1025300020FA04F001FA02F340EA030021FA04F35E
:1025400045EA030130BDC4F10C04C4F1200220FAB5
:1025500002F001FA04F340EA0300294630BD21FAF3
:1025600004F0294630BD94F0000F83F4801306BFB9
:1025700081F480110134013D4EE77FEA645C18BFAD
:102580007FEA655C29D094EA050F08BF90EA020F44
:1025900005D054EA000C04BF1946104630BD91EA3C
:1025A000030F1EBF0021002030BD5FEA545C05D13F
:1025B0004000494128BF41F0004130BD14F580047E
:1025C0003CBF01F5801130BD01F0004545F0FE41F2
:1025D00041F470014FF0000030BD7FEA645C1ABF27
:1025E000194610467FEA655C1CBF0B46024650EA5E
:1025F000013406BF52EA033591EA030F41F400218A
:1026000030BD00BF90F0000F04BF0021704730B50F
:102610004FF4806404F132044FF000054FF00001E4
:1026200050E700BF90F0000F04BF0021704730B5A5
:102630004FF4806404F1320410F0004548BF40427A
:102640004FF000013EE700BF42004FEAE2014FEACF
:1026500031014FEA02701FBF12F07F4393F07F4FAA
:1026600081F06051704792F0000F14BF93F07F4FDC
:10267000704730B54FF4607401F0004521F000411F
:1026800020E700BF50EA010208BF704730B54FF0A5
:1026900000050AE050EA010208BF704730B511F0AA
:1026A000004502D5404261EB41014FF4806404F1E2
:1026B00032045FEA915C3FF4DCAE4FF003025FEA64
:1026C000DC0C18BF03325FEADC0C18BF033202EBEC
:1026D000DC02C2F1200300FA03FC20FA02F001FA46
:1026E00003FE40EA0E0021FA02F11444C1E600BFE5
:1026F00070B54FF0FF0C4CF4E06C1CEA11541DBF98
:102700001CEA135594EA0C0F95EA0C0F00F0DEF862
:102710002C4481EA030621EA4C5123EA4C5350EA47
:10272000013518BF52EA033541F4801143F4801398
:1027300038D0A0FB02CE4FF00005E1FB02E506F029
:102740000042E0FB03E54FF00006E1FB03569CF07E
:10275000000F18BF4EF0010EA4F1FF04B6F5007F84
:1027600064F5407404D25FEA4E0E6D4146EB0606F6
:1027700042EAC62141EA55514FEAC52040EA5E507F
:102780004FEACE2EB4F1FD0C88BFBCF5E06F1ED829
:10279000BEF1004F08BF5FEA500E50F1000041EB60
:1027A000045170BD06F0004646EA010140EA02000D
:1027B00081EA0301B4EB5C04C2BFD4EB0C0541EA2F
:1027C000045170BD41F480114FF0000E013C00F344
:1027D000AB8014F1360FDEBF002001F0004170BD68
:1027E000C4F10004203C35DA0C341BDC04F1140481
:1027F000C4F1200500FA05F320FA04F001FA05F20D
:1028000040EA020001F0004221F0004110EBD370D9
:1028100021FA04F642EB06015EEA430E08BF20EA05
:10282000D37070BDC4F10C04C4F1200500FA04F3A8
:1028300020FA05F001FA04F240EA020001F000413A
:1028400010EBD37041F100015EEA430E08BF20EAAD
:10285000D37070BDC4F1200500FA05F24EEA020EF5
:1028600020FA04F301FA05F243EA020321FA04F024
:1028700001F0004121FA04F220EA020000EBD370DB
:102880005EEA430E08BF20EAD37070BD94F0000FDB
:102890000FD101F00046400041EB010111F4801F0F
:1028A00008BF013CF7D041EA060195F0000F18BFC0
:1028B000704703F00046520043EB030313F4801FFC
:1028C00008BF013DF7D043EA0603704794EA0C0FB6
:1028D0000CEA135518BF95EA0C0F0CD050EA4106CC
:1028E00018BF52EA4306D1D181EA030101F0004149
:1028F0004FF0000070BD50EA410606BF1046194671
:1029000052EA430619D094EA0C0F02D150EA01367C
:1029100013D195EA0C0F05D152EA03361CBF1046BD
:1029200019460AD181EA030101F0004141F0FE415C
:1029300041F470014FF0000070BD41F0FE4141F4E0
:10294000780170BD70B54FF0FF0C4CF4E06C1CEAE0
:1029500011541DBF1CEA135594EA0C0F95EA0C0F95
:1029600000F0A7F8A4EB050481EA030E52EA033550
:102970004FEA013100F088804FEA03334FF0805571
:1029800045EA131343EA12634FEA022245EA11159E
:1029900045EA10654FEA00260EF000419D4208BF4F
:1029A000964244F1FD0404F5407402D25B084FEAFC
:1029B0003202B61A65EB03055B084FEA32024FF4A8
:1029C00080104FF4002CB6EB020E75EB030E22BF05
:1029D000B61A754640EA0C005B084FEA3202B6EBC5
:1029E000020E75EB030E22BFB61A754640EA5C0074
:1029F0005B084FEA3202B6EB020E75EB030E22BF04
:102A0000B61A754640EA9C005B084FEA3202B6EB04
:102A1000020E75EB030E22BFB61A754640EADC00C3
:102A200055EA060E18D04FEA051545EA16754FEA25
:102A300006164FEAC30343EA52734FEAC2025FEA43
:102A40001C1CC0D111F4801F0BD141EA00014FF0D2
:102A500000004FF0004CB6E711F4801F04BF0143A3
:102A60000020B4F1FD0C88BFBCF5E06F3FF6AFAEBF
:102A7000B5EB030C04BFB6EB020C5FEA500C50F14F
:102A8000000041EB045170BD0EF0004E4EEA1131D2
:102A900014EB5C04C2BFD4EB0C0541EA045170BDD9
:102AA00041F480114FF0000E013C90E645EA060E1D
:102AB0008DE60CEA135594EA0C0F08BF95EA0C0F4B
:102AC0003FF43BAF94EA0C0F0AD150EA01347FF493
:102AD00034AF95EA0C0F7FF425AF104619462CE76A
:102AE00095EA0C0F06D152EA03353FF4FDAE1046CD
:102AF000194622E750EA410618BF52EA43067FF41E
:102B0000C5AE50EA41047FF40DAF52EA43057FF4AD
:102B1000EBAE12E74FF0FF3C06E000BF4FF0010CB8
:102B200002E000BF4FF0010C4DF804CD4FEA410C1C
:102B30007FEA6C5C4FEA430C18BF7FEA6C5C1BD0E9
:102B400001B050EA410C0CBF52EA430C91EA030F6A
:102B500002BF90EA020F0020704710F1000F91EAC7
:102B6000030F58BF994208BF90422CBFD8176FEA95
:102B7000E37040F0010070474FEA410C7FEA6C5C63
:102B800002D150EA013C07D14FEA430C7FEA6C5C6A
:102B9000D6D152EA033CD3D05DF8040B704700BF96
:102BA0008446104662468C461946634600E000BFE4
:102BB00001B5FFF7B7FF002848BF10F1000F01BDB6
:102BC0004DF808EDFFF7F4FF0CBF012000205DF881
:102BD00008FB00BF4DF808EDFFF7EAFF34BF012006
:102BE00000205DF808FB00BF4DF808EDFFF7E0FF9F
:102BF00094BF012000205DF808FB00BF4DF808EDF0
:102C0000FFF7CEFF94BF012000205DF808FB00BF56
:102C10004DF808EDFFF7C4FF34BF012000205DF838
:102C200008FB00BF4FEA4102B2F1E04324BFB3F515
:102C3000001CDCF1FE5C0DD901F0004C4FEAC00233
:102C40004CEA5070B2F1004F40EB830008BF20F017
:102C50000100704711F0804F21D113F13872BCBFD1
:102C600001F00040704741F480114FEA5252C2F126
:102C70001802C2F1200C10FA0CF320FA02F018BF6F
:102C800040F001004FEAC1234FEAD32303FA0CFCC2
:102C900040EA0C0023FA02F34FEA4303CCE77FEA51
:102CA000625307D150EA01331EBF4FF0FE4040F49B
:102CB0004000704701F0004040F0FE4040F400004A
:102CC000704700BF80F0004002E000BF81F000418B
:102CD00042001FBF5FEA410392EA030F7FEA226CC2
:102CE0007FEA236C6AD04FEA1262D2EB1363C1BF52
:102CF000D218414048404140B8BF5B42192B88BFC1
:102D0000704710F0004F40F4000020F07F4018BFE3
:102D1000404211F0004F41F4000121F07F4118BF03
:102D2000494292EA030F3FD0A2F1010241FA03FCAB
:102D300010EB0C00C3F1200301FA03F100F0004393
:102D400002D5494260EB4000B0F5000F13D3B0F15B
:102D5000807F06D340084FEA310102F10102FE2ACA
:102D600051D2B1F1004F40EBC25008BF20F001003A
:102D700040EA03007047490040EB000010F4000FE8
:102D8000A2F10102EDD1B0FA80FCACF1080CB2EB7B
:102D90000C0200FA0CF0AABF00EBC25052421843DA
:102DA000BCBFD0401843704792F0000F81F400017F
:102DB00006BF80F400000132013BB5E74FEA410352
:102DC0007FEA226C18BF7FEA236C21D092EA030FBE
:102DD00004D092F0000F08BF0846704790EA010F38
:102DE0001CBF0020704712F07F4F04D1400028BF65
:102DF00040F00040704712F100723CBF00F5000047
:102E0000704700F0004343F0FE4040F4000070477C
:102E10007FEA226216BF08467FEA23630146420228
:102E200006BF5FEA412390EA010F40F4800070473B
:102E30004FF0000304E000BF10F0004348BF4042E1
:102E40005FEA000C08BF704743F0964301464FF01D
:102E500000001CE050EA010208BF70474FF0000379
:102E60000AE000BF50EA010208BF704711F00043BA
:102E700002D5404261EB41015FEA010C02BF84468A
:102E80000146002043F0B64308BFA3F18053A3F5E9
:102E90000003BCFA8CF2083AA3EBC25310DB01FA30
:102EA00002FC634400FA02FCC2F12002BCF1004FB4
:102EB00020FA02F243EB020008BF20F00100704745
:102EC00002F1200201FA02FCC2F1200250EA4C0099
:102ED00021FA02F243EB020008BF20EADC707047DF
:102EE0004FF0FF0C1CEAD0521EBF1CEAD15392EAED
:102EF0000C0F93EA0C0F6FD01A4480EA010C4002C9
:102F000018BF5FEA41211ED04FF0006343EA501022
:102F100043EA5111A0FB01310CF00040B1F5000F64
:102F20003EBF490041EAD3715B0040EA010062F113
:102F30007F02FD2A1DD8B3F1004F40EBC25008BFFD
:102F400020F00100704790F0000F0CF0004C08BF1B
:102F500049024CEA502040EA51207F3AC2BFD2F1E8
:102F6000FF0340EAC250704740F400004FF00003F6
:102F7000013A5DDC12F1190FDCBF00F00040704730
:102F8000C2F10002410021FA02F1C2F1200200FA6E
:102F900002FC5FEA310040F1000053EA4C0308BF35
:102FA00020EADC70704792F0000F00F0004C02BF86
:102FB000400010F4000F013AF9D040EA0C0093F001
:102FC000000F01F0004C02BF490011F4000F013B5B
:102FD000F9D041EA0C018FE70CEAD15392EA0C0FC9
:102FE00018BF93EA0C0F0AD030F0004C18BF31F034
:102FF000004CD8D180EA010000F00040704790F00A
:10300000000F17BF90F0004F084691F0000F91F0AD
:10301000004F14D092EA0C0F01D142020FD193EA73
:103020000C0F03D14B0218BF084608D180EA0100FB
:1030300000F0004040F0FE4040F40000704740F0D7
:10304000FE4040F4400070474FF0FF0C1CEAD052A5
:103050001EBF1CEAD15392EA0C0F93EA0C0F69D001
:10306000A2EB030280EA010C49024FEA402037D06C
:103070004FF0805343EA111143EA10130CF0004063
:103080008B4238BF5B0042F17D024FF4000C8B4253
:1030900024BF5B1A40EA0C00B3EB510F24BFA3EB33
:1030A000510340EA5C00B3EB910F24BFA3EB910303
:1030B00040EA9C00B3EBD10F24BFA3EBD10340EA5D
:1030C000DC001B0118BF5FEA1C1CE0D1FD2A3FF6A3
:1030D00050AF8B4240EBC25008BF20F00100704758
:1030E0000CF0004C4CEA50207F32C2BFD2F1FF03FB
:1030F00040EAC250704740F400004FF00003013A2C
:1031000037E792F0000F00F0004C02BF400010F4CF
:10311000000F013AF9D040EA0C0093F0000F01F0E3
:10312000004C02BF490011F4000F013BF9D041EA05
:103130000C0195E70CEAD15392EA0C0F08D1420238
:103140007FF47DAF93EA0C0F7FF470AF084676E70B
:1031500093EA0C0F04D14B023FF44CAF08466EE7E4
:1031600030F0004C18BF31F0004CCAD130F00042B2
:103170007FF45CAF31F000437FF43CAF5FE700BF0A
:1031800042000ED2B2F1FE4F0BD34FF09E03B3EBD1
:10319000126209D44FEA002343F0004323FA02F0FD
:1031A00070474FF00000704712F1610F01D14202E9
:1031B00002D14FF0FF3070474FF00000704700BF62
:1031C000032A2DE9F0070BD83AB1002311F803C008
:1031D00000F803C001339342F8D1BDE8F00770470F
:1031E00082180C46034603E014F8011C03F8011C86
:1031F00003F003061946A44601330134002EF3D12F
:103200001CF00304634608BFC1EB020C68D06542A2
:10321000C4F1040A0CEB050733464FEACA0A5CF80E
:1032200005604FEAC408551A08E057F8044F2646CF
:1032300004FA0AF449EA0404CC5004335C18032D60
:1032400026FA08F9A5F104050CEB0306EDDC0023D2
:1032500002E0F15CE154013319199142F9D3BCE762
:1032600053F8404C41F8404C53F83C4C41F83C4C2E
:1032700053F8384C41F8384C53F8344C41F8344C3E
:1032800053F8304C41F8304C53F82C4C41F82C4C4E
:1032900053F8284C41F8284C53F8244C41F8244C5E
:1032A00053F8204C41F8204C53F81C4C41F81C4C6E
:1032B00053F8184C41F8184C53F8144C41F8144C7E
:1032C00053F8104C41F8104C53F80C4C41F80C4C8E
:1032D00053F8084C41F8084C53F8044C41F8044C9E
:1032E0001C460D4640334031BCF13F0FACF1400C61
:1032F000B6DC21462B46541B0FE051F8105C43F816
:10330000105C51F80C5C43F80C5C51F8085C43F815
:10331000085C51F8045C43F8045C0F2C0D469C4695
:1033200001F1100103F11003A4F11004E5DCCCEB72
:103330000201002303E0EC584CF8034004335E190B
:10334000032903EB0C04A1F10401F4DC7FE700BFC7
:10335000032AC9B230B407D822B10023C1540133C3
:103360009342FBD130BC704700EB020C034601E0F6
:1033700003F8011C03F003041A460133002CF7D1B3
:103380004FF00133C2EB0C0403FB01F31FE042F8E2
:10339000403C42F83C3C42F8383C42F8343C42F86D
:1033A000303C42F82C3C42F8283C42F8243C42F89D
:1033B000203C42F81C3C42F8183C42F8143C42F8CD
:1033C000103C42F80C3C42F8083C42F8043C1546DC
:1033D00040323F2CA4F14004D9DC2A46C5EB0C0452
:1033E00007E042F8103C42F80C3C42F8083C42F836
:1033F000043C154610320F2CA4F11004F1DC2A46CF
:10340000C5EB0C0501E042F8043C14460432032DE0
:10341000A5F10405F7DC01E004F8011B6445FBD3CA
:10342000A0E700BF08B500F017F8074800B1006832
:10343000064901B109680022FCF730FE044B0BB1CC
:10344000AFF30080FEE700BF0000000000000000B6
:1034500000000000FEE7000070B543F2545643F24E
:103460005455C0F20006C0F20005761BB61006D017
:10347000002455F8243001349847A642F9D843F285
:10348000545543F25C56C0F20005C0F20006761BAC
:1034900000F05AF8B61006D0002455F82430013454
:0834A0009847A642F9D870BD5F
:1034A8004D5100404D5100404D5100404D5100409C
:1034B80002082080285B0040285B00402080000034
:1034C8000001000110510040100030510040100070
:1034D800505100402000C05100401000F051004001
:1034E80010000000014000100014014000080040D6
:1034F8000140000A004C01400002000000000000EA
:103508004FBB610567ACDD3F182D4454FB21E93FF3
:103518009BF681D20B73EF3F182D4454FB21F93FE2
:10352800E2652F227F2B7A3C075C143326A6813C68
:10353800BDCBF07A8807703C075C143326A6913C13
:10354800F8B500BFF8BC08BC9E4670478100000073
:10355800B1070000F8B500BFF8BC08BC9E4670472C
:103568006D00000000000000803500000881FF1F8A
:08357800180000003000000003
:1035800000000000FF00000000366E01C05D00007A
:08359000180000000000E02E0D
:040000030000078D65
:00000001FF
